:020000040802F0
:1000000000000A20111D0208DB180208E31802088C
:10001000E5180208E7180208E9180208611D02083D
:10002000000000000000000000000000EB180208C3
:10003000ED18020800000000EF180208F11802088D
:10004000611D0208611D0208611D0208611D020890
:10005000611D0208611D0208611D0208611D020880
:10006000611D0208F5180208611D0208611D0208E1
:10007000611D0208611D0208611D0208611D020860
:10008000611D0208611D0208611D0208611D020850
:10009000611D0208611D0208611D0208611D020840
:1000A000611D0208611D0208611D0208611D020830
:1000B000611D0208611D0208611D0208611D020820
:1000C000611D0208F918020805190208611D0208DD
:1000D00000000000611D0208611D0208611D020888
:1000E000611D0208611D0208611D0208611D0208F0
:1000F000611D0208611D0208611D0208611D0208E0
:10010000611D0208611D0208611D0208611D0208CF
:10011000611D0208611D0208611D0208611D0208BF
:10012000611D0208611D020811190208611D020803
:10013000611D0208611D0208611D0208611D02089F
:10014000611D0208611D0208611D0208611D02088F
:10015000611D0208611D0208611D0208611D02087F
:10016000611D0208611D0208611D0208611D02086F
:10017000611D0208611D0208611D0208611D02085F
:10018000611D0208611D0208611D0208611D02084F
:10019000611D0208611D0208611D0208611D02083F
:1001A000611D0208611D0208611D0208611D02082F
:1001B000611D0208611D0208611D0208611D02081F
:1001C000611D0208611D0208611D0208611D02080F
:1001D000611D0208611D020800000000611D020887
:1001E000611D0208611D02080000000000000000FF
:1001F000611D02080000000000000000611D0208EF
:10020000611D0208611D0208611D02080000000056
:1002100000000000611D020800000000611D0208CE
:10022000611D0208611D0208611D0208611D0208AE
:10023000611D0208611D0208611D0208611D02089E
:10024000611D0208611D0208611D02080000000016
:10025000000000000000000000000000000000009E
:10026000000000000000000000000000000000008E
:10027000000000000000000000000000000000007E
:10028000000000000000000000000000000000006E
:10029000000000000000000000000000000000005E
:1002A000000000000000000000000000000000004E
:1002B000000000000000000000000000000000003E
:1002C000000000000000000000000000000000002E
:1002D000000000000000000000000000000000001E
:1002E000000000000000000000000000000000000E
:1002F00000000000000000000000000000000000FE
:10030000CF5BA1850100000000000000ECD80000D8
:10031000449A24CCEEE569A243CF6B8DA5AA688AE6
:10032000E2FC96BF4829B7E7EBA46FB15EDF79BF67
:1003300001000009000000000000000000000000B3
:1003400000000000000000000000000000000000AD
:10035000000000000000000000000000000000009D
:10036000000000000000000000000000000000008D
:10037000000000000000000000000000000000007D
:1003800010B5054C237833B9044B13B10448AFF3CF
:1003900000800123237010BD7800002000000000C1
:1003A00030B7020808B5034B1BB103490348AFF34C
:1003B000008008BD000000007C00002030B702086B
:1003C000F8B50C4611461A4684B00500104B1BD0F8
:1003D00068683A2818BF0F4B16D10D980CB909B1AF
:1003E00012E088B182B10B9F0C9E07B966B958B173
:1003F000DDF838C002900196CDF80CC00097204679
:100400000A9B2C68A0470346184605B0F0BD00BF04
:100410000300010002000100F8B50C4611461A461F
:1004200084B00500104B1CD0686810F13B0F18BF5A
:100430000E4B16D10D980CB909B112E088B182B1FA
:100440000B9F0C9E07B966B958B1DDF838C0029011
:100450000196CDF80CC0009720460A9B2C68A04757
:100460000346184605B0F0BD03000100020001007C
:100470002DE9FC4104460D46216816461F464A6890
:1004800090478046B8F5803F1DD123683946089AC9
:100490009F682046B8478046B8F5803F13D123684F
:1004A0000A9A0999DF682046B8478046B8F5803F28
:1004B00009D129460C9832460B9B009025682046AE
:1004C0002E6AB0478046216820460A689047404619
:1004D000BDE8F6819D090208A8B70208F0B5CBB0C7
:1004E00004460D4616461F46094905A800F066FA5F
:1004F0005399529A049151990392509A02910097FC
:10050000019233462A462146FFF7B2FF4BB0F0BDB9
:10051000D404020840B1016829B1044A914202D1D1
:100520000121034B1970406809F006BD00003748EF
:100530009400002000F10C032DE9F44F8CB01A68F0
:100540004C6845680868D1F80CE08F6850405A68DC
:10055000D968ED0854409A68ED1C81EA0E0E5740A8
:10056000B94A0095214661E00B98DDF828A052F8C1
:10057000288052F820C052F8211052F827704FEA14
:100580003C2052F82AC080EA0800039C80EA3C40E4
:10059000DDF824C0029D90EA31601968019E484050
:1005A00052F82C1052F82EC052F829E097EA312167
:1005B000089FDDF8149081EA3C41D3F804C081EA39
:1005C0003E61DDF81CE08CEA010152F827C04FEAD9
:1005D0003C2752F82EC0DDF818E052F82E804FEA82
:1005E000386E52F8298087EA080787EA3C47D3F833
:1005F00008C08EEA0707DDF810E08CEA070752F81A
:100600002EC04FEA3C2E52F824C04FEA3C4452F828
:1006100025C04FEA3C6552F826C08EEA0C0E84EAEB
:100620000E0EDC6885EA0E0E84EA0E0E0D025FFAED
:100630008EF82D0E52F828A052F825604FEA074C8C
:100640004FEA3A684FEA106B4FEA36294FEA1C6CC2
:1006500052F82BA052F82C60D3F810C089EA0A098E
:1006600089EA364988EA09098CEA09094FEA072824
:100670004FEA18684FEA0E4C52F828A04FEA1C6C5B
:1006800052F82C804FEA384C5FFA80F852F828B0C4
:100690004FEA3B684FEA116B52F82BB08BEA3A2ACB
:1006A0008CEA0A0AD3F814C088EA0A0A4FEA0E282C
:1006B0008CEA0A0A4FEA18684FEA004C52F828B050
:1006C0004FEA1C6C52F82C805FFA81FC09044FEA57
:1006D0003848CDF8048052F82C80090E52F82110C9
:1006E0004FEA386C4FEA176852F828800002000E73
:1006F00088EA3B2BDDF804804FEA1E6E52F820009A
:1007000088EA0B0B8CEA0B0BD3F818C0FFB252F837
:1007100027708CEA0B0B4FEA314C52F82E104FEA3F
:100720000B284FEA186891EA30208CEA000191EA20
:100730003761009FD869CDF824807F1E0097414023
:100740004FEA0A474FEA116E3F0ECDF804E00397D7
:100750004FEA092E4FEA1B674FEA1E6E05974FEAD4
:100760000B40CDF810E00F02000E4FEA094E3F0E8D
:100770000A904FEA1E6E08970098CDF81CE04FEAE9
:100780001A674FEA0A2C20334FEA014E4FEA1968E4
:100790004FEA1C6C5FFA8BFB5FFA8AFA4FEA1E6E17
:1007A000CDF82CC0CDF808B0CDF818A05FFA89F9C3
:1007B000C9B200287FF4D8AE0B9D244C14F8080071
:1007C000665D615C0C9A360446EA00660A98255C10
:1007D000186846EA05260E43464016600998E55D0E
:1007E00014F80910265C5868360446EA056614F8C1
:1007F0000E5046EA05260E43464056600599069E71
:10080000605C0899655C2D0445EA00650798215CE9
:10081000986845EA0125A15D0D4345409560019921
:10082000029E605C0499655C2D0445EA00650398AE
:10083000215CA05D45EA0125D96805434D40D5609E
:100840000DB0BDE8F08F00BFE4D60208E4DA02087C
:1008500010B500F0ABF84FF4803400280EBF034C05
:100860004FF48A710AF0DCFB204610BD0300010042
:1008700010B5040001D1054810BD00F097F800F153
:1008800008012046BDE8104000F032B90300010025
:1008900038B50C46154608B9054832BD00F086F853
:1008A0002A4621460830BDE8384000F029B900BF8B
:1008B000030001007CB504000D46164602D000F08E
:1008C00075F808B9074876BD102E33462A460CBF86
:1008D00001210021009100F58271204600F0F4FA18
:1008E00076BD00BF030001002DE9F84F88B0044633
:1008F00020798B469046C107994658BF254845D573
:10090000204600F053F80546287C00F00500052835
:1009100018BF21483AD1129F0FB10020386000263D
:1009200011E01DF801001BF80230584009F80200E0
:1009300017B13A68521C3A60491C514502D28A19D3
:100940009045EED2103646451AD2AB68A8EB060A9F
:10095000BAF1100FD3F800C004AA88BF4FF0100AF4
:1009600005F5827105F10800E047D5F810016946E8
:10097000401CC5F8100104A800F0E2FA0021DCE7F1
:10098000B0453CBF002060604FF4803009B0BDE846
:10099000F08F00BF030001000400010010B1024A03
:1009A00002608160704700BFACB702080168024A6C
:1009B000914218BF00207047ACB702080A4653683E
:1009C00012681968104700002DE9F04100F10C058C
:1009D00000249208434B002010E001EB800696F8BB
:1009E00001C037784FEA0C4C4CEA076CB778F678C0
:1009F0004CEA07273E4345F82060401C9042ECD368
:100A000005EB820858F8040C374FD5F800C00604EF
:100A10000102360E090EBE5D795C360446EA0166B7
:100A2000C1B2795C000E46EA0126395C41EA060053
:100A300080EA0C012D4E56F82400641C484045F80D
:100A40002200012081182E1F56F8216055F820C081
:100A5000401C04288CEA060645F82160F2D3042ADB
:100A600004D0062A0BD0082A14D037E00A2C04D26E
:100A7000B3F5803F01D04546C2E7BDE8F081072CC1
:100A8000FBD86F6A28694740AF62686980EA07014E
:100A9000E962EDE7072CF0D2E86A2969060E17F83B
:100AA00006E00602360EBE5D360446EA0E6C06040B
:100AB0004FEA166E17F80E60C0B2385C4CEA062694
:100AC000304341402963052005EB8001CF690E6862
:100AD000401C77400F620728F6D9C9E74FF0011391
:100AE000C9E700BF04000100E4DA0208D8B7020831
:100AF00000224260012088604FF48030704700007F
:100B00002DE9F14F8CB09246E84AE94BE94DDFF808
:100B1000A883EA4EDFF8A8B30DF1040CBAF1100F68
:100B200008D0BAF1180F00F09280BAF1200F00F04F
:100B30001881A8E1DBE900040DF1240EE14FCEE9B4
:100B40000004387800280CBF4FF000094FF004096A
:100B500056F809405EF809703C4423602768012379
:100B6000A3608C7B7368D6F800900094099C5F406A
:100B70007C40DEF8047084F0040487EA090787F0FB
:100B8000FC0E009F744484F0520EBE448CF80EE0BC
:100B90004FF0010E11F80E400CF80E400EF1010E50
:100BA000BEF10E0FF6D3DBE9004700280DF1240E4D
:100BB000CEE900470CBF002704273C46F7595EF8F2
:100BC0000440E419C4F80080D4F800800127A7602D
:100BD000099C83EA08080F7884EA080484F0040872
:100BE000DEF80440002884EA090484F0FC0444444C
:100BF00084F00B08DBE9004EB84409AFC7E9004EAA
:100C00008DF804800EBF4FF0000E0420864609AC1C
:100C1000365854F80E008619356030680125B560E5
:100C2000CE7B0999434060684B4083F0040380EA1F
:100C3000090080F0FC00034483F085039B198CF8C5
:100C40000F300C9D287AC10700F11F811BE1DBE901
:100C500000E909A89B4CC0E900E920780DF1240EB9
:100C600000280CBF4FF000094FF0040956F8094066
:100C70005EF809703C44256027680125A5608C7BDF
:100C80007568D6F800900094099C6F407C40DEF8AF
:100C9000047084F0040487EA090787F0FC0E009FC3
:100CA000744484F0850EBE448CF80EE04FF0010EC3
:100CB00011F80E400CF80E400EF1010EBEF10E0FB1
:100CC000F6D3DBE9004700280DF1240ECEE90047FA
:100CD0000CBF002704273C46F7595EF80440E4198E
:100CE000236027680123A360099B6F400C785F4055
:100CF000DEF8043087F0040783EA090383F0FC037D
:100D00001F4487F052073F198DF80470DBE9007328
:100D1000002809ACC4E900730EBF0023042004239B
:100D20003658E05801238619C6F800803068B36051
:100D3000099B454060685D40CE7B80EA090085F0F4
:100D4000040580F0FC00054485F00B05AD198CF816
:100D50000F5010200B5C0CF80030401C1828F9D301
:100D60006FE7DBE900E909A8564CC0E900E9207803
:100D70000DF1240E00280CBF4FF000094FF00409BC
:100D800056F809405EF809703C44C4F800802768B2
:100D90004FF00108C4F80880CC7FD6F80480D6F85C
:100DA00000900094099C88EA07077C40DEF80470F4
:100DB00084F0040487EA090787F0FC0E009F74445E
:100DC00084F00B0EBE448CF81FE04FF0000E11F8BB
:100DD0000E400CF80E400EF1010EBEF1100FF6D3CE
:100DE000DBE9004700280DF1240ECEE900470CBFD7
:100DF000002704273C46F7595EF80440E4192560B3
:100E000027680125A560099D88EA07074C7C6F408B
:100E1000DEF8045087F0040785EA090585F0FC0533
:100E20002F4487F085073F198CF81170DBE90047E4
:100E3000002809ADC5E900470EBF4FF0000B0420A4
:100E40008346365855F80B00861933603068012305
:100E5000B360099B88EA00000E7C584080F00408CB
:100E6000686880EA090080F0FC00404480F0520885
:100E7000B0448CF8108012200B5C0CF80030401C41
:100E80001F28F9D3DDE610460DE02B68524601A974
:100E90005E682846B047A868C5F804A040F0040082
:100EA000A8604FF480300DB0BDE8F08F0300010062
:100EB00054228EF77D138F2EA40B0E9198B7020843
:100EC000380F020894000020F0B5059C002C18BFD4
:100ED000002A01D10D48F0BD00240DE015446F78C3
:100EE0002E783F0447EA0667AE78ED7847EA062792
:100EF0002F4341F82470641CA5009D42EED3416845
:100F000041F0010141604FF48030F0BD0300010069
:100F10004FF4803070474FF4803070474FF480308A
:100F200070474FF48030704700487047020001005E
:100F3000004870470200010004B00101001701459C
:100F400030B5002250F8224001EB8203DC7050F8EB
:100F500022502D0A9D7050F82240240C5C7050F8ED
:100F60002240521C240E1C70042AEBD330BD0346D1
:100F700013F8012B002AFBD1181A0138704770B4FE
:100F8000840746D04C1E002941D0D5B2034602E06A
:100F9000611EE4B30C4603F8015B9907F8D1032CFA
:100FA0002ED9D5B245EA05250F2C45EA054519D9B4
:100FB000264603F11001103E0F2E41F8105C41F857
:100FC0000C5C41F8085C41F8045C01F11001F2D8B6
:100FD000A4F1100121F00F0104F00F041031032CD3
:100FE0000B440DD91E4621460439032946F8045BFB
:100FF000FAD8211F21F0030104310B4404F003044B
:101000002CB1D2B21C4403F8012BA342FBD170BC1B
:1010100070470C460346C2E753B94AB9002908BFD6
:1010200000281CBF4FF0FF314FF0FF3000F07EB9B9
:10103000ADF1080C6DE904CE00F006F8DDF804E02F
:10104000DDE9022304B070472DE9F04F099D0C46FD
:10105000002B4DD18A420F4684469646B2FA82F35F
:1010600060D94BB102FA03FEC3F120029F4000FA9F
:1010700003FC20FA02F217434FEA1E461FFA8EF4D1
:101080004FEA1C42B7FBF6F106FB117701FB04F0B7
:1010900042EA0742904208D91EEB020201F1FF37F3
:1010A00002D2904200F22D813946121A1FFA8CFCAE
:1010B000B2FBF6F006FB102200FB04F44CEA024CF3
:1010C000644508D91EEB0C0C00F1FF3202D26445D6
:1010D00000F21A81104640EA0140ACEB040C0021FA
:1010E00025B12CFA03F30022C5E90032BDE8F08FE8
:1010F0008B4205D90DB1C5E9000100210846F5E78D
:10110000B3FA83F100294DD1A342C0F0F28090429E
:1011100080F0EF80064623460846002DE6D0C5E95C
:101120000063E3E7002B40F0A2808A1A4FEA1E47D3
:101130001FFA8EF60121B2FBF7F407FB14204FEAE9
:101140001C4242EA004206FB04F090420FD91EEB1B
:10115000020204F1FF382CBF4FF001094FF00009E3
:10116000904203D9B9F1000F00F0C8804446121A2A
:101170001FFA8CFCB2FBF7F007FB102200FB06F60F
:101180004CEA024C664508D91EEB0C0C00F1FF320C
:1011900002D2664500F2BB801046ACEB060C40EA7A
:1011A00004409DE7C1F120068B4004FA01FE22FABB
:1011B00006F720FA06FCF4408A401F434EEA0C036F
:1011C00000FA01FE4FEA17484FEA13491FFA87FC5D
:1011D000B4FBF8F008FB104449EA044400FB0CF9A6
:1011E000A1450ED93C1900F1FF3A2CBF4FF0010B7D
:1011F0004FF0000BA14503D9BBF1000F00F0938025
:101200005046A4EB09041FFA83F9B4FBF8F308FB7A
:10121000134403FB0CFC49EA0444A44506D93C19D9
:1012200003F1FF3801D2A4457AD8434643EA00408F
:10123000A4EB0C04A0FB02984445CC46434602D3E1
:1012400006D1CE4504D20138B9EB020C68EB070396
:101250005DB1BEEB0C0264EB030404FA06F622FA5D
:1012600001F3CC401E43C5E9006400213EE702FAC9
:1012700003FEC3F1200104FA03F200FA03FCCC40A0
:101280004FEA1E4720FA01F11FFA8EF6B4FBF7F081
:101290000A4307FB1044110C41EA044100FB06F429
:1012A0008C420ED91EEB010100F1FF382CBF4FF02C
:1012B00001094FF000098C4202D9B9F1000F2CD07E
:1012C0004046091B92B2B1FBF7F407FB141142EA46
:1012D000014204FB06F1914207D91EEB020204F120
:1012E000FF3801D2914215D84446521A44EA0041CF
:1012F00021E7861A64EB030301200EE7023C7244E7
:1013000035E702397244D0E6F4440238E3E6F444A7
:10131000023842E7023C7244E7E702387144D0E702
:10132000023B3C4482E702383C446AE7704700BF16
:1013300000B589B020220021684609F011FE042280
:101340001848002342610122DFF860C0C0E902337F
:10135000C0E900C3C0E90A3303610383C26180F8B6
:10136000203080F834300363836380F83C3000F031
:10137000A1FD08B100F0A4FA06230B4A0321CDE930
:1013800000237F230420CDE9021300236946CDE921
:101390000403044800F0E2FE08B100F091FA09B03D
:1013A0005DF804FB980000200008302E0081024206
:1013B00010B50446CAB01422002103A809F0D0FDDC
:1013C0004FF48472002108A809F0CAFD2268214B5D
:1013D0009A423DD14FF4001200230420CDE90823A6
:1013E000032308224021CDE90F02CDE90A334FF44F
:1013F0008022022308A8CDE90C130E9313923C938C
:1014000003F0BCFC08B100F05BFA134B1348D3F8AF
:101410008C2003A942F48062C3F88C20D3F88C207E
:1014200002F480620192019AD3F88C2042F0040207
:10143000C3F88C20D3F88C30022203F0040302930B
:10144000029B0323CDE903230023059302F03AF91D
:101450004AB010BD00810242000C02440008024262
:1014600008B50848084B03600023C0E905338380B2
:101470000123036201F032FB18B1BDE8084000F01F
:101480001FBA08BD00010020003002400268094B6D
:1014900082B09A420CD1084BD3F8882042F4805293
:1014A000C3F88820D3F8883003F480530193019B5C
:1014B00002B0704700300240000C0244104B07B5E8
:1014C000D3F88820022142F00102C3F88820D3F823
:1014D0008830002203F0010301932120019B01F0D9
:1014E00003FA212001F030FA00220321222001F02A
:1014F000FBF9222003B05DF804EB01F025BA00BF30
:10150000000C024414222DE9F0418AB00DEB0200D8
:10151000002109F025FD504B504DD3F88C20504E42
:1015200042F08002C3F88C20D3F88C20284602F0C9
:1015300080020092009AD3F88C20DFF82C8142F0D0
:101540000402C3F88C20D3F88C20002402F004029B
:101550000192019AD3F88C20012742F00102C3F8CE
:101560008C20D3F88C2002F001020292029AD3F868
:101570008C2042F00802C3F88C20D3F88C2002F0B3
:1015800008020392039AD3F88C2042F00202C3F8B7
:101590008C200122D3F88C30114603F0020304930F
:1015A000049B02F0A1F9304600227F2102F09CF951
:1015B00028460022702102F097F9304601224FF4AC
:1015C000006102F091F901224046302102F08CF9CD
:1015D0007123284605A9CDE90537CDE9074402F076
:1015E00071F80823284605A9CDE90534079402F0CF
:1015F00069F87F23304605A9CDE90537CDE90744D1
:1016000002F060F84FF400621123304605A9CDE9DD
:1016100005230226CDE9074402F054F84FF4805325
:10162000284605A9CDE90534079602F04BF80423B6
:1016300005A90C48CDE90534079602F043F830239C
:10164000404605A9CDE90537CDE9074402F03AF84F
:101650000AB0BDE8F08100BF000C0244000802425D
:1016600000000242000C02420004024270470000E7
:1016700008B51248124A134BC0E900230023012287
:10168000C0E90433C0E90232C0E90633036202F064
:101690006CFA08B100F014F90021084802F0F3FCDC
:1016A00008B100F00DF90021044802F012FD18B154
:1016B000BDE8084000F004B908BD00BF24010020C7
:1016C00000280044E543C010F0B50446CBB0142216
:1016D000002103A809F044FC4FF48472002108A8FB
:1016E00009F03EFC2268274B9A4248D14FF4004251
:1016F000002308A8CDE9082303F040FB08B100F05F
:10170000DFF8214C1227D4F88C30002543F0040375
:10171000C4F88C30D4F88C30042603F00403009312
:10172000009BD4F88C30194843F00103C4F88C3086
:10173000D4F88C3003A903F001030193019B4FF40B
:101740000073CDE90555CDE90337079601F0BAFFDF
:101750004FF480730E4803A9CDE90337CDE9055551
:10176000079601F0AFFFD4F8A83043F08003C4F827
:10177000A830D4F8A83003F080030293029B4BB04A
:10178000F0BD00BF00280044000C024400080242E3
:101790000000024208B502F0C1FC18B1BDE80840E3
:1017A00000F08EB808BD000008B501230848094ABA
:1017B000C0E9002340F6FF73C0E902330023036150
:1017C00002F0D3FC18B1BDE8084000F079B808BDBC
:1017D000780100200030004010B59CB0202200218C
:1017E0000AA809F0BDFB1822002102A809F0B8FBE5
:1017F000214B1A6942F030021A611A6902F0300274
:101800000192019A5A691407FCD509224FF48033DA
:10181000CDE908234FF0806303247D220E93022339
:101820000820CDE91234CDE91523CDE91733002383
:10183000CDE9190308A814941B9302F0C7FE08B160
:1018400072B6FEE71F23CDE90400CDE906000521AD
:1018500002A8CDE9023402F083FD08B172B6FEE7BA
:1018600003F09EF9054A136823F0300343F0200388
:1018700013601CB010BD00BF0008024400200240ED
:1018800008B508F04DFF00F0B5FAFFF7A5FFFFF728
:10189000EDFEFFF737FEFFF711FEFFF749FDFFF7FB
:1018A000DFFD00F037F9FFF7E3FEFFF773FF00F00D
:1018B000DFF8FFF779FF08F09FFF08F065FFFCE70E
:1018C00072B6FEE7002208B50920114601F00CF8B7
:1018D000BDE80840092001F037B808B503F068F901
:1018E000FEE7FEE7FEE7FEE7FEE77047704770475A
:1018F00000F0A4BA70470000014801F03ABC00BFF4
:101900005C020020014801F034BC00BFD40200207A
:10191000014806F0B7BF00BF4C0300200B4A034646
:10192000116810B509B90A491160106809490A4CD3
:101930000344091B8B4206D909F03EFB0C230360CC
:101940004FF0FF3010BD1360FCE700BF8C0100209A
:101950002046042000000A200004000001221D4946
:1019600010B5D1F888301C4843F47003C1F88830B2
:101970001A4B1A600022DA611A621C682040186053
:1019800017489A62DA621A6358639A63D8631A64D2
:1019900058649A64186820F4802018601A654FF023
:1019A00000638B600F4B9A6902F04042B2F1404FE6
:1019B0000FD1DA69D20741BF0B4ADA6002F1443233
:1019C000DA60DA6942F00202DA61DA6942F00102B1
:1019D000DA6110BD00ED00E0E3EAE2EA000C024447
:1019E00080020101002002403B2A19080268094BCD
:1019F00082B09A420CD1084BD3F89C2042F00402EA
:101A0000C3F89C20D3F89C3003F004030193019B9E
:101A100002B0704700080040000C024410B50446B4
:101A200086B01422002101A809F09AFA22680D4B11
:101A30009A4215D10C4B0D48D3F88C2001A942F0E5
:101A40000402C3F88C20D3F88C30042203F0040382
:101A50000093009B0223CDE90123059301F032FEA0
:101A600006B010BD00080040000C0244000802420D
:101A700010B58EB01022002103A809F071FA0024DD
:101A80001C2221460DEB0200CDE90044029409F02E
:101A900067FAF9231D481E4A8460C0E900234FF607
:101AA000FF738461C0E9033406F03CFB08B1FFF723
:101AB00007FF4FF48053154803A9039306F036F946
:101AC00008B1FFF7FDFE114806F066FB08B1FFF70D
:101AD000F7FE002469460D480094029406F096FB38
:101AE00008B1FFF7EDFE60230C22084807A9CDE9F5
:101AF000073409940B9406F093F808B1FFF7E0FE61
:101B00000248FFF78BFF0EB010BD00BF9001002010
:101B10000008004008B54FF461231548154AC0E994
:101B2000002300230C22C0E90233C0E90523C0E9E9
:101B30000733C0E90933036107F040FA08B1FFF742
:101B4000BFFE00210A4807F01FFB08B1FFF7B8FEEF
:101B50000021074807F038FB08B1FFF7B1FE044841
:101B600007F0F7FA18B1BDE80840FFF7A9BE08BDB5
:101B70004C0300200038014070B50646CAB014225C
:101B8000002103A809F0ECF94FF48472002108A8A1
:101B900009F0E6F93268444B9A4240F08280012213
:101BA000002308A8CDE9082303F0E8F808B1FFF7FF
:101BB00087FE3E4B4FF4C061D3F8A420002542F4C9
:101BC0008042C3F8A420D3F8A420394802F480420C
:101BD0000192019AD3F88C20364C42F00102C3F8EE
:101BE0008C20D3F88C30CDE9055503F00103029326
:101BF000029B0223CDE90313072303A9079301F0F6
:101C000061FD15232C48C4E90255C4E900034FF4D3
:101C10000023C4E9053501232046C4E90755C4E97A
:101C20000933C4E90B552561656300F0DDFF08B198
:101C3000FFF746FE10211F48C6F88040E66501F018
:101C400059FB08B1FFF73CFE16231C4C1C4A2046EA
:101C5000C4E9002300234FF48062C4E90232082261
:101C6000C4E904230122C4E90633C4E90922C4E912
:101C70000B332362636300F0B7FF08B1FFF720FE68
:101C800010210E48F467E66501F034FB08B1FFF758
:101C900017FE3A200022012100F026FE3A2000F033
:101CA00053FE4AB070BD00BF00380140000C024432
:101CB00000000242D4020020D00302405C02002057
:101CC0005003024002680F4B10B59A42044617D1E8
:101CD0000D4A4FF4C061D2F8A4300C4823F480437D
:101CE000C2F8A43001F092FDD4F8800001F032F97E
:101CF000E06F01F02FF9BDE810403A2000F032BE4D
:101D000010BD00BF00380140000C02440000024238
:101D1000DFF834D0002103E00C4B5B584350043112
:101D20000B480C4B42189A42F6D30B4A02E00023B0
:101D300042F8043B094B9A42F9D3FFF70FFE09F032
:101D400041F9FFF79DFDFEE700000A20F4DB0208E1
:101D500000000020780000207800002020460420A9
:101D6000FEE7000070B5204E054632780AB9012022
:101D700070BD4FF0E0231C6914F0040417D04FF439
:101D80007A73B3FBF2F3194A1468B4FBF3F42046F8
:101D900000F0FAFD04460028E9D1024629464FF03A
:101DA000FF3000F0A1FD124B20461D60E0E700F07F
:101DB00035FE012807D002280DD00028E7D14FF4C6
:101DC000FA533278DDE74FF47A7332784FF4FA44FD
:101DD000B3FBF2F3D9E74FF47A7332784FF400444F
:101DE000B3FBF2F3D1E700BF0400002000000020A5
:101DF0000800002010B5032000F064FD02F004FA92
:101E00000B4B0C4A1B6A03F00F03D35CD8400A4B00
:101E10001860042000F0C8FD0F20FFF7A3FF044660
:101E200018B9FFF74FFD204610BD0124FBE700BFA6
:101E3000000C024408B8020800000020034A044BCA
:101E400011681B780B441360704700BF1804002012
:101E500004000020014B1868704700BF18040020E0
:101E600038B50446FFF7F6FF0546631C1EBF044B5A
:101E70001B78E418FFF7EEFF431BA342FAD338BDEB
:101E80000400002030B50725CC0D04F00404143004
:101E90000359C1F304518D4023EA05038A401343DB
:101EA000035130BD806800F0010070478068C0F3C6
:101EB00080007047002337B504460193002800F0E6
:101EC000C880856D25B9FFF773FAE56584F854502D
:101ED00023689A68950041BF9A6822F0204222F058
:101EE0003F029A609A68D00040F192809A68D100CF
:101EF00000F1A5800121A26D42F01002A265E26D01
:101F000042F00102E2651846FFF7D0FFA26D02F031
:101F10001002024340F09980A26D184622F48172AB
:101F200042F00202A265FFF7BDFF78B94A48FFF709
:101F3000B9FF02464948FFF7B5FF024306D14848BA
:101F40006568826822F47C122A438260E568A26B8D
:101F500094F820002A43A568012842EA0502657E1C
:101F600042EA453242EA004202BF606A00F1FF30B5
:101F700042EA4042A06A20B1E56A00F47870284342
:101F80000243DD68374828401043D8601A69206B47
:101F900022F0406202431A619A68120720D4D8687E
:101FA00094F83420257E520020F4804042EA8532A5
:101FB00020F002000243DA6094F83C20012A40D16C
:101FC000D4E9102518692A4320F4FF6020F00400AA
:101FD0000243A06C0243E06C024342F001021A612A
:101FE0002269012A05BF186BE2691A6B02F1FF3200
:101FF00006BF20F00F00024322F00F021A63A36D08
:1020000023F0030343F00103A365084603B030BD8A
:102010009A68154922F0104222F03F0242F08052A5
:102020009A60124A1268B2FBF1F201325200019238
:10203000019A002A3FF45AAF019A013AF7E70021CA
:1020400061E71A6922F00102C9E7A36D43F01003AA
:10205000A3650121D9E700BF00800242008102424E
:10206000008302420740F0FF400D03000000002003
:10207000354A2DE9F04145699768082D04460E461A
:1020800007F01F0715D040F22123FB40D9070BD5DD
:102090000368DB6813F0010F0AD00120A36D43F041
:1020A0002003A365BDE8F081936813F4604FF3E764
:1020B0000425FFF7CFFE804623681A682A4225D000
:1020C000A26D42F40072A265DA6812F4406F0FD17B
:1020D000627E6AB91A6816070AD5A26D22F4807268
:1020E000A265A26DD0045EBFA26D42F00102A2659E
:1020F000164A934204D140F22122FA40D1071BD55F
:10210000DA68082D1BD11D600020CBE7721CD4D0EB
:10211000FFF7A0FEA0EB0800B04201D8002ECBD103
:1021200023681B682B40C7D1A26D032042F0040234
:10213000A26584F85430B5E7054AD268E1E7520455
:10214000E2D40C221A60DFE70083024200810242DF
:10215000008002420368186C704700000023F7B546
:10216000019390F854300546012B0E4600F0CE81C5
:102170000123046880F854302046FFF797FE0028BA
:1021800040F0BE811F270B6804F1300C012B08BF03
:10219000B949C3F3846302BFD1F8C82042F00102F9
:1021A000C1F8C8207168880900F00C005CF80020B4
:1021B00001F01F018F4022EA07028B4013434CF8C5
:1021C00000302046FFF772FEA26802F008020243C8
:1021D0003BD1B3683168B3F1004F7AD12046FFF7A5
:1021E00051FE636943F00043636137697169042FED
:1021F000E068326804F1600373D0C0F3C1004000AE
:1022000053F827C081409D4802F0F8420CEA0000D4
:10221000104341EA000242F0004243F827203169AE
:10222000B06953F8212022F08072024343F8212044
:10223000317F30694F1E53F820207942794122F0D6
:10224000007242EA416243F820202046FFF72AFE4E
:10225000A0BBF76833688A4AD4F8B00007F0180CBE
:10226000C3F3130122FA0CF21A4020EA01000243E0
:10227000C4F8B020834A974220D1002940F09080D2
:102280009A0E013202F01F07092F4FF001004FEAAA
:10229000826200F2A58002F0F842B84002430029B1
:1022A00040F09980990E013101F01F0101EB4101CD
:1022B000090511432046B268FFF7E4FD3268724B0E
:1022C0001A4240F0B5800020002385F8543003B056
:1022D000F0BD1A462046FFF7D5FD636923F00043A1
:1022E00082E7216E216EC2F31300C1F384610028DE
:1022F00039D1C2F38462914202BF226E22F00042C1
:1023000022665A6832685968C2F31300C1F38461C7
:1023100000282FD1C2F38462914202BF5A6822F092
:1023200000425A609A6832689968C2F31300C1F398
:10233000846130BBC2F38462914202BF9A6822F08A
:1023400000429A60DA683268D968C2F31300C1F3B8
:102350008461E8B9C2F38462914202BFDA6822F074
:102360000042DA6071E792FAA2F2002AC9D0B2FA0A
:1023700082F2C0E792FAA2F2002AD3D0B2FA82F235
:10238000CAE792FAA2F2002ADCD0B2FA82F2D3E7CC
:1023900092FAA2F2002A3FF458AFB2FA82F2DBE7D7
:1023A00093FAA3F030B1B0FA80F2571C07F01F0780
:1023B000092F25D893FAA3F293FAA3F7B2FA82F27F
:1023C000B7FA87F7013292060137012002F0F8428E
:1023D00007F01F0761E793FAA3F1B1FA81F162E711
:1023E00002F0F842B8400243A9B9990E013101F058
:1023F0001F0101EB41011E39090541F0007158E749
:10240000B0FA80F7013292060137012002F0F8425B
:1024100007F01F07E6E793FAA3F3B3FA83F3032168
:102420006FF01D00013303F01F0311FB0301E3E70D
:10243000164B174E9968B24201F0E0702ED10E0291
:102440003FF541AF0C4A94427FF43DAF9A6822F0C9
:10245000E072024342F400029A600E4B0E4A1B687F
:10246000B3FBF2F301335B000193019B002B3FF4BC
:102470002AAF019B013BF7E70080024200F0FF0317
:10248000FFFF0F0000007F40000008800083024231
:10249000000021C300000020400D03001C4EB2428A
:1024A0000ED1C9013FF50FAF1A4A94427FF40BAF2A
:1024B0009A6822F0E072024342F080729A6002E76A
:1024C000154EB2420DD14A023FF5FDAE134A944279
:1024D0007FF4F9AE9A6822F0E072024342F480027F
:1024E000ECE70F4B9A427FF4EEAE0C4B9C423FF46C
:1024F000EAAED4F8C83043F00103C4F8C830E2E6CD
:10250000AA6D184642F02002AA65DDE60220DEE64A
:102510000000294300810242000052C700800242AD
:1025200000005A47036870B504461846FFF7BEFC22
:102530009A6802F00802024301D1002070BDDA68F7
:1025400092013AD540F20112208B904235D1274AB0
:1025500019684E0625D5402201211A601846FFF75A
:10256000A5FC50B19A68950707D49A6822F00042FA
:1025700022F03F0242F010029A6001291FD1042587
:10258000FFF768FC064623689B682B42D5D0FFF70F
:1025900061FC801B0528F6D923689B682B42F2D08A
:1025A00001E0013AD4D1A36D012043F01003A365EB
:1025B000E36D43F00103E365C0E70229CED19A68D9
:1025C00010070AD59A68920707D49A6822F0004249
:1025D00022F03F0242F020029A60022903D0032930
:1025E000CDD10C25CCE70825CAE700BF010040A3E8
:1025F000002373B50268044610460193FFF752FCAE
:1026000010B1002002B070BD9168214B194209D071
:10261000A36D012043F01003A365E36D43F00103B4
:10262000E365EFE7936823F0004323F03F0343F0B3
:1026300001039360174B9B6819021AD4FFF70AFC39
:102640000546154E22681368DB07DAD41046FFF7FB
:1026500029FC20B99368334043F001039360FFF7EE
:10266000F9FB401B0228EDD923681B68DA07E9D47F
:10267000CEE70A4B0A4A1B68B3FBF2F301335B0057
:102680000193019B002BD9D0019B013BF8E700BFD0
:102690003F00008000830242C0FFFF7F0000002057
:1026A000400D0300344B70B5044600689E68FFF788
:1026B000FDFB054600285CD194F85430012B58D01E
:1026C0000123204684F85430FFF792FF00284DD1B3
:1026D000A36D2A4A23F4706323F0010343F480734B
:1026E000A365236806F01F0193422DD171BBA2F5AB
:1026F0008072A56D25F48015A565A56D15F480552E
:102700001CBFE56D25F00605E5651C251D6000254F
:10271000934284F8545005D040F2212525FA01F166
:10272000C90715D5DA68920141BFA26D22F4405263
:1027300042F48052A2659A6822F0004222F03F02E1
:1027400042F004029A6070BD1A46D2E70C4AD4E700
:10275000A36D43F48013A365D3689B01F3D5A36DE8
:1027600023F4405343F48053A365ECE784F85450BA
:10277000E9E70220E7E700BF00830242008102424E
:1027800000800242026838B5044610469368FFF79D
:1027900089FB08B9002038BD9907FBD4936803F082
:1027A0000D03012B19D1936823F0004323F03F035D
:1027B00043F00203936003231360FFF74BFB0546CE
:1027C00023689B68DB07E5D5FFF744FB401B022825
:1027D000F6D923689B68DA07F2D5A36D012043F090
:1027E0001003A365E36D43F00103E365D3E710B580
:1027F00090F854300446012B16D00123032180F8B1
:102800005430FFF78FFE58B92046FFF7BBFF38B9A9
:10281000A36D23F4885323F0010343F00103A36560
:10282000002384F8543010BD0220FCE7002337B5A4
:10283000019390F854300446012B0D463DD00123FE
:1028400080F85430FFF79EFFA36D002832D123F4A7
:10285000885323F00203226843F00203A3659368C0
:1028600005F0804523F0404323F03F032B4343F022
:10287000004393609368002B12DA019B01330193AC
:1028800001990F4B9942F5D3A36D012023F0120358
:1028900043F01003A365002384F8543003B030BD27
:1028A000A36D23F0030343F00103A365002384F821
:1028B0005430F3E743F01003F7E70220EEE700BFE0
:1028C00000F8C32507490302CA6803F4E06322F451
:1028D000E0621204120C134343F0BF6343F400336D
:1028E000CB60704700ED00E0154B30B5DC68C4F3F9
:1028F0000224C4F10703251D042B28BF0423062D41
:102900004FF0FF3594BF0024033C05FA03F321EA9E
:102910000303A54022EA0502A340002843EA02037C
:10292000ACBF00F16040074A4FEA0313DBB2ABBF14
:1029300000F5614000F00F0080F80033135430BD03
:1029400000ED00E014ED00E0002807DB0123410961
:10295000034A00F01F00834042F82130704700BF57
:1029600000E100E000280CDB01220649430900F0E9
:102970001F008240203341F82320BFF34F8FBFF365
:102980006F8F704700E100E00138B0F1807F3FBFFA
:102990004FF0E02358610020986137BF1A69012089
:1029A00042F003021A617047042818D8DFE800F0EB
:1029B0000A18261703004FF0E022136943F00403BE
:1029C000136170474FF0E022136923F00403136191
:1029D000114AD2F8E43023F00C03C2F8E430704717
:1029E0004FF0E022136923F0040313610A4AD2F87E
:1029F000E43023F00C0343F00403EEE74FF0E02251
:102A0000136923F004031361034AD2F8E43023F07E
:102A10000C0343F00803E0E7000C02444FF0E0230E
:102A20001B695A070CD4084BD3F8E40000F00C00E3
:102A3000042807D0A0F108035842584140007047CD
:102A40000420704701207047000C0244F0B50C468A
:102A500022F00305066897080D44A54208D112F03C
:102A600003021ED0012A14D111F82730337018E068
:102A7000637894F800C01B0443EA0C6394F803C025
:102A8000043443EA0C0314F802CC43EA0C23336009
:102A9000E3E76B78022A11F8272043EA0223338008
:102AA00002D103681868F0BDAB78DFE70023006847
:102AB000F0B555088E1C9D4206D1D30744BF31F8AE
:102AC000253003800068F0BD31F8237036F82340CC
:102AD000013344EA07440460EDE7000010B5044602
:102AE00008B9012010BD437F03F0FF0213B902773C
:102AF000FEF7CCFC022363772379E3B92368134AFA
:102B00005A619A6822F018029A6062792368D2B9F1
:102B10004FF0FF321A619A68616922F060020A433D
:102B20009A609A68A16922F080020A439A600123A0
:102B300000206377D6E72046D4E9021200F02CF893
:102B40000028E2D0CDE72269E4E700BFB71DC10449
:102B5000F8B50226467706680446B76847F00107CD
:102B6000B760076A022F14D0032F05D0012F0DD0B4
:102B7000002001236377F8BD01EB8205A94201D152
:102B80003068F6E751F8043B3360F7E7FFF75EFF84
:102B9000EFE7FFF78BFFECE7CB0710B50DD51F2351
:102BA000013B1DD321FA03F4E407F9D5102A13D011
:102BB000102A04D83AB1082A10D001200BE0182AB4
:102BC000FBD1062BF9D800684161836823F0180314
:102BD00013438360002010BD072BF3E70F2BF1E7B1
:102BE000102AE5D1E9E7000038B50446FFF732F9CD
:102BF0000546002C00F0A581002384F84C30022308
:102C0000226884F85430536943F006035361236803
:102C10005A69D20700F18A815A69216A22F4430273
:102C20000A435A61E1696269B04D0A432169AB42C6
:102C300042EA0102A169AE4842EA010200F088803E
:102C4000AC498B4200F0848001F1704180318B42AD
:102C50007ED001F180518B427AD001F170418031F8
:102C60008B4275D001F180518B4271D001F17041DE
:102C700080318B426CD001F180518B4268D001F1E0
:102C8000704180318B4263D001F180518B425FD023
:102C900001F1704180318B425AD001F180518B4259
:102CA00056D0834254D080318B4251D001F17041D3
:102CB00080318B424CD001F180518B4248D001F1E0
:102CC000704101F548618B4242D001F180518B4245
:102CD0003ED001F1704180318B4239D001F18051F9
:102CE0008B4235D001F1704180318B4230D001F1FF
:102CF00080518B422CD001F1704180318B4227D022
:102D000001F180518B4223D001F1704180318B421F
:102D10001ED001F180518B421AD001F170418031F7
:102D20008B4215D001F180518B4211D001F17041DD
:102D300080318B420CD001F180518B4208D001F1DF
:102D4000704180318B4203D001F180518B420DD113
:102D5000A16A0139090501F07C711143E26A11434E
:102D6000626A013A120102F47C720A43196C01F0A2
:102D700080210A431A64A168226B1143227911430E
:102D8000E268B2F5806F40F0DE80AB4200F08880F0
:102D9000584A934200F0848002F17042803293429C
:102DA0007ED002F1805293427AD002F1704280329A
:102DB000934275D002F18052934271D002F1704279
:102DC000803293426CD002F18052934268D002F17B
:102DD00070428032934263D002F1805293425FD0BE
:102DE00002F17042803293425AD002F180529342F3
:102DF00056D0834254D08032934251D002F1704277
:102E0000803293424CD002F18052934248D002F17A
:102E1000704202F54862934242D002F180529342DE
:102E20003ED002F170428032934239D002F180529A
:102E3000934235D002F170428032934230D002F199
:102E4000805293422CD002F170428032934227D0BC
:102E500002F18052934223D002F1704280329342B9
:102E60001ED002F1805293421AD002F17042803299
:102E7000934215D002F18052934211D002F1704278
:102E8000803293420CD002F18052934208D002F17A
:102E900070428032934203D002F18052934201D1BA
:102EA00041F480615A6C656B22F0434222F47F1238
:102EB00022F4F75222F01F022A430A435A640022E6
:102EC00083429A6427D00C4A934224D002F1704284
:102ED000803293421FD002F1805293421BD002F104
:102EE000704202F57862934215D007E0500002402C
:102EF00050030240500002505003025002F1805231
:102F0000934208D002F170428032934203D002F122
:102F10008052934202D100225A659A650020D867F8
:102F20000123A065256584F854300BE0FEF792FF7D
:102F3000401B05287FF66BAE1023A365032384F89E
:102F40005430012038BDB2F5007F08BF41F4007154
:102F5000A8E700BF70B50446FEF77CFF0646002CCC
:102F600066D025686B6943F006036B6123685A6974
:102F700012F0010252D11A605A611A645A649A64BA
:102F8000DA641A65DA672B4A93421FD002F1805245
:102F900093421BD002F170428032934216D002F16C
:102FA0008052934212D002F1704202F5786293424D
:102FB0000CD002F18052934208D002F1704280326C
:102FC000934203D002F18052934202D100225A650B
:102FD0009A6525F47F620125C3F30B0122F00F02ED
:102FE00050395068C1F3C41105FA01F120EA01011A
:102FF00051604FF4FE42DA600023E26DC4E91833F9
:10300000C4E91A33C4E91C3302B1E365A3650020A7
:10301000236584F8543084F84C300AE0FEF71AFF38
:10302000801B0528A2D91023A365032384F85430FC
:10303000012070BD5003024030B5002836D090F812
:103040004C40012C34D0012480F84C4090F854407E
:10305000012C4FF0000425D1022580F854508465DE
:1030600004689BB2A56C2D0C2D041D434FF4FE4348
:10307000A564E360E1642265636943F4BA43636174
:10308000436E1BB1636943F400736361036F1BB14B
:10309000636943F4005363610020636943F00103F3
:1030A000636130BD402380F84C4083650120F8E720
:1030B0000220F6E738B50446FEF7CCFE054644B1DB
:1030C00094F85430022B06D02023A365002384F803
:1030D0004C30012038BD2268536943F0040353612A
:1030E000052384F8543023681A69900419D55A6965
:1030F000216D42F002025A61042284F854204FF4F8
:10310000FE42DA600122090648BF616F84F854204C
:103110004FF0000042BF0A7300229A6484F84C000A
:10312000D8E7FEF797FE401B0528DCD9A36D43F0D6
:103130001003A365032384F85430236D1D06C5D501
:103140000122636F1A73C1E728B190F85430022B43
:1031500003D020238365012070470423026880F890
:1031600054305369002043F4005343F00403536187
:1031700070470121036810B523F47F6222F00F022B
:103180000446D068C3F30B02503AC2F3C41201FAEA
:1031900002F2024200F0AB801A69500508D55A6964
:1031A000520505D54FF48062DA60A26D0A43A2652C
:1031B0001A69100509D55A69110506D54FF4006240
:1031C000DA60A26D42F00202A2651A69D20409D542
:1031D0005A69D00406D54FF48052DA60A26D42F0ED
:1031E0000402A2651A69510409D55A69520406D528
:1031F0004FF48042DA60A26D42F00802A2651A69BB
:10320000900509D55A69910506D54FF40072DA6028
:10321000636E0BB12046984723681A6992042ED535
:103220005A6990042BD54FF40052DA6094F8542078
:10323000042A1DD15A69216D22F400525A615A693B
:10324000090642F002025A614FF0010248BF616F65
:1032500084F8542042BF0A7300229A64002384F841
:103260004C30E36E002B42D02046BDE8104018479A
:10327000052384F85430236F0BB120469847236808
:103280001A69D20518D55A69D00515D5226D1106CF
:1032900026D5DA6F32B99A6C22B90122616F84F8AF
:1032A00054200A734FF44072DA60002384F84C30E3
:1032B000236E0BB120469847A36DC3B122685369B2
:1032C00043F0020353610123226D84F85430120647
:1032D00044BF626F1373002384F84C30A36EC1E7C0
:1032E0009A6C002ADED1012284F85420DAE710BD5E
:1032F000806D7047D0B1CB0601D4002070470368C1
:10330000012023F47F62C3F30B0322F00F0201F0CC
:103310001101503B1129C3F3C413516800FA03F3A0
:103320000CBF0B4321EA03035360E6E7012070471B
:10333000830706D509B1064B0B600AB1072313605A
:10334000704709B1034B0B60002AF9D00523F6E75B
:10335000000001FE000001F8034637B500284BD0FD
:10336000426F002A48D090F854100468012960691F
:10337000CDB203D0022D3AD1C10338D593F8541001
:103380000129CDB22CD193F84C10022001292CD068
:10339000002183F8540083F84C5010739965116133
:1033A000616941F4BA416161596E19B1616941F4D1
:1033B000007161611B6F1BB1636943F4005363616A
:1033C000156801A9286A0022FFF7B2FF2B0C1B0425
:1033D00025F0030523602D04019B2D0C1D43E5679B
:1033E0000020636943F00103636103B030BD4022F4
:1033F0009A65002283F84C200120F6E7084A10B5B0
:10340000936A43F002039362EFF3108272B60023D3
:10341000CC58C4500433102BFAD182F3108810BD5D
:10342000002002400C4A10B5936A43F002039362F5
:103430000A4B146C9B6803F0040323431364EFF3FB
:10344000108272B60023CC58C4500433102BFAD12A
:1034500082F3108810BD00BF002002400C00002045
:10346000064B986A10F0010007D0054A5A6002F135
:1034700088325A60986A00F00100704700200240CC
:1034800023016745044B9A6A42F001029A62986AE6
:10349000C04300F0010070470020024070B50546AF
:1034A000FEF7D8FC0646114C236A13F00B0F0AD125
:1034B000236A13F47E0311D001200D494A681A4390
:1034C0004A60236370BD6A1CEED0FEF7C3FC801B0C
:1034D000A84201D8002DE7D10320F3E7236A00209A
:1034E000DB0344BF4FF480332363EBE7002002404B
:1034F0000C000020F8B5224F04463B780D46012B06
:1035000016463BD001233B7000234FF47A707B605A
:10351000FFF7C4FFE0B924F00043022BBC601AD1CE
:1035200031462846FFF76AFF4FF47A70FFF7B6FF7F
:10353000144B24F030419A6A21F0040122EA01027E
:103540009A62114A944202BF1A6C22F004021A6471
:1035500000233B70F8BD0D4A24F00401914204D1D0
:1035600031462846FFF75EFFDEE7064B9A6A42F0D7
:1035700002029A6233889BB22B80D5E70220E9E7EA
:103580000C00002000200240060000100200001085
:1035900000F00303032B07D10D4A936A43F4004361
:1035A00043F0200393627047C20708D5084A936A24
:1035B00023F0004323F0280343F02803936283079A
:1035C000F1D5034A936A43F0004343F02803E9E747
:1035D000002002400E4B11F0010F9A6A4FEA801052
:1035E0000AD022F0004222F4FE529A629A6A1043F4
:1035F00040F024009862704722F4FE529A629A6A60
:10360000024342F0004242F024029A62704700BF37
:10361000002002402DE9F041274E054633788846C8
:10362000012B47D00123337000234FF47A7073606D
:10363000FFF734FF0446B8B948F208022B6823F0BC
:1036400000419142B36014D16868FFF7A1FF4FF4C5
:103650007A70FFF723FF044618492A688B6A22F024
:10366000004223EA02038B62002333702046BDE848
:10367000F081134A934205D1104A136C43F00803BA
:103680001364E4E74FF0FF33C8F80030AF68D5E9C2
:1036900002231344BB42DFD938466968FFF79AFF1B
:1036A0004FF47A70FFF7FAFE10B1C8F80070D2E755
:1036B0000137ECE70224D9E70C000020002002408B
:1036C000080000802DE9F74F4E4B4FF0030903EA45
:1036D000902301934FF00F0800234B4D0A6832FAF4
:1036E00003F402D103B0BDE8F08F012404FA03FA19
:1036F0001AEA020200F084804C6824F01007022FBE
:1037000016D14FEAD30C00EB8C0C03F0070EDCF85B
:1037100020604FEA8E0E08FA0EFB26EA0B0B0E69AC
:1037200006F00F0606FA0EF646EA0B06CCF8206005
:10373000D0F800B04FEA430E09FA0EFC2BEA0C0B4E
:103740006FEA0C0604F0030C0CFA0EFC013F4CEA85
:103750000B0C012FC0F800C011D8876806EA070CCF
:10376000CF6807FA0EF747EA0C078760476827EA31
:103770000A0CC4F300179F4047EA0C074760032C6C
:103780003ED0C76837408E6806FA0EF63E43C660E4
:10379000E60035D523F0030707F1884A03F0030656
:1037A000019FF60008FA06FE07FA06F6D7430AF567
:1037B000083ADAF860C014F4801F2CEA0E0C46EACE
:1037C0000C06CAF860602E680CBF3E4016432E609F
:1037D0006E6814F4001F0CBF3E4016436E60D5F8AF
:1037E000846014F4003F0CBF3E401643C5F884606B
:1037F000D5F88060E40354BF3E401643C5F88060AE
:1038000001336BE77F7F2F00002002442DE9F04F4A
:1038100000234FF001084FF00F0E4FF003092D4F1A
:103820002D4A07EA902731FA03F401D1BDE8F08F61
:1038300008FA03FC1CEA010649D023F0030404F152
:10384000884404F5083403F00305ED00D4F860A0C3
:103850000EFA05FB0BEA0A0A07FA05F5554517D1DA
:10386000D2F8805025EA0605C2F88050D2F884507C
:1038700025EA0605C2F88450156825EA0605156094
:10388000556825EA06055560256E25EA0B0525666F
:1038900005685C0009FA04F42543DE08056000EBC6
:1038A000860603F00705D6F820A0AD000EFA05F550
:1038B0002AEA05053562856825EA040585604568BC
:1038C00025EA0C054560C56825EA0404C460013397
:1038D000A9E700BF7F7F2F0000200244036919423F
:1038E00014BF0120002070470AB1816170478162D6
:1038F0007047436901EA030221EA030141EA0241F8
:103900008161704703689A69910744BF00229A62F7
:103910009A69D2075EBF9A6942F001029A617047C4
:1039200030B5039D04682B4343EA0243064A6068AE
:10393000C1F309010B4342EA555223F0004320EA48
:1039400002000343636030BDFF63FF0303682DE99A
:10395000F0419C69054614F010040F4616466FD0DE
:1039600000241022A046DA612B689A69900661D47F
:10397000B8F1000F35D0012044F004042E68B3697B
:10398000D90541BF4FF480720120F26144F0010477
:103990005A0541BF4FF48062012044F00804F261EF
:1039A0009B054FD54FF4007344F00204F3612846A1
:1039B000FFF7A8FF7368012023F0FF7323F48B3314
:1039C00023F4FF7323F0010373606B6C23436B6478
:1039D000202385F84130002385F8423085F84030B7
:1039E00032E07A1CC1D0FEF735FA801BB84201D80C
:1039F000002FB9D12B68596895F842209869D2B246
:103A000000040AD5490408D4202A06D05A6842F492
:103A100080425A60FEF71EFA06462B689B699B0699
:103A2000A2D4FEF717FA801B1928F6D920244FF0EC
:103A3000010899E7B8F1000F9DD12022DA619AE7D9
:103A400020469BE70028B2D1BDE8F08170B504465E
:103A50000D46164623689B699B0701D500201FE091
:103A6000324629462046FFF771FFC0B96A1CF1D0E3
:103A7000FEF7F0F9801BA84201D8002DEAD1236897
:103A80009B6913F00203E5D1626C84F8403042F088
:103A900020026264202284F8412084F84230012010
:103AA00070BD2DE9F04104460F4616461D46DDF86F
:103AB000188023689B6937EA03030CBF01230023A6
:103AC000B34201D0002025E0424629462046FFF7B8
:103AD0003DFFF0B96B1CECD0FEF7BCF9A0EB080081
:103AE000A84201D8002DE4D123689B6937EA03037B
:103AF0000CBF01230023B342DBD1636C43F02003EE
:103B00006364202384F84130002384F8423084F831
:103B100040300120BDE8F08170B504460D461646E0
:103B200023689B699B0601D500201DE0324629468B
:103B30002046FFF70BFFB0B9FEF78CF9801BA842B7
:103B400001D8002DECD123689B6913F02003E7D145
:103B5000626C84F8403042F020026264202284F8D3
:103B6000412084F84230012070BD10B50446002881
:103B70004ED090F8413003F0FF021BB980F840208E
:103B8000FDF7A2FD242384F8413023681A6822F04F
:103B900001021A60626822F070621A619A6822F467
:103BA00000429A60D4E90221012906D142F4004280
:103BB0009A605A6822F4006207E042F40442022943
:103BC0009A60F6D15A6842F400625A605A6800203E
:103BD00042F0007242F400425A60DA6822F4004275
:103BE000DA60D4E904210A43A16942EA0122DA60D9
:103BF000D4E907210A431A601A6842F001021A60E8
:103C00002023606484F84130206384F8420010BDB2
:103C10000120FCE72DE9F74F994690F84130044622
:103C2000202B0F461646BDF834A0DDF8388040F052
:103C3000C6800C9B13B1BAF1000F06D14FF400738C
:103C40006364012003B0BDE8F08F90F84030012B91
:103C500000F0B5804FF0010B80F840B0FEF7FAF8A5
:103C60001923054600905A464FF400412046FFF7BD
:103C700018FF0028E5D1212384F84130402384F83F
:103C800042300C9B606463624E4B60633946204651
:103C9000A4F82AA05FFA89F200934FF08073FFF72F
:103CA0003FFE2A4641462046FFF7D0FE18BBB9F139
:103CB000010F236815D1F6B29E620022434680218F
:103CC00020460095FFF7EDFEA8B9638D9BB2FF2B50
:103CD00015D8628D4FF0007392B222850090D2B257
:103CE00012E0320A9A6241462A462046FFF7AEFEAB
:103CF00008B92368DFE7002384F84030A1E7FF22FA
:103D00004FF080732285009039462046FFF708FE69
:103D10002A4641462046FFF799FE002891D1636A62
:103D2000226813F8011B91626362638D228D013B4F
:103D30009BB26385638D013A92B29BB22285B3B187
:103D4000AAB94346802120460095FFF7AAFE002825
:103D50007FF477AF638D9BB2FF2B28D9FF224FF002
:103D600080732285009039462046FFF7D9FD638D88
:103D70009BB2002BCCD12A4641462046FFF7CCFE11
:103D800000287FF45EAF20212368D9615A6822F0B1
:103D9000FF7222F48B3222F4FF7222F001025A6089
:103DA00084F8411084F8400084F842004AE7628DAC
:103DB0004FF0007392B222850090D2B2D3E7022076
:103DC00040E700BF002000802DE9F74F994690F8AA
:103DD00041300446202B0F461646BDF834A0DDF8CE
:103DE000388040F0C9800C9B13B1BAF1000F06D1A6
:103DF0004FF400736364012003B0BDE8F08F90F8C6
:103E00004030012B00F0B8804FF0010B80F840B03B
:103E1000FEF720F81923009005465A464FF400415A
:103E20002046FFF73EFE03460028E4D1222284F814
:103E30004120402284F842200C9A606462624F4A1A
:103E4000606339462046A4F82AA000925FFA89F2FE
:103E5000FFF766FD2A4641462046FFF7F7FD20BBE7
:103E6000B9F1010F236816D1F6B29E6200224346D3
:103E7000402120460095FFF714FEB0B9638D9BB238
:103E8000FF2B3F4B15D8628D92B222850093D2B2A0
:103E90004FF0007312E0320A9A6241462A462046E9
:103EA000FFF7D4FD08B92368DEE7002384F840302B
:103EB000A1E7FF22228500934FF080733946204608
:103EC000FFF72EFD43460022042120460095FFF710
:103ED000E8FD00288FD123685A6A636A1A70636A02
:103EE000228D01336362638D013A013B9BB263858E
:103EF000638D92B29BB22285B3B1AAB943468021A9
:103F000020460095FFF7CDFD00287FF474AF638D48
:103F10009BB2FF2B28D9FF224FF08073228500909F
:103F200039462046FFF7FCFC638D9BB2002BC9D1BC
:103F30002A4641462046FFF7EFFD00287FF45BAF9D
:103F400020212368D9615A6822F0FF7222F48B3253
:103F500022F4FF7222F001025A6084F8411084F8C2
:103F6000400084F8420047E7628D4FF0007392B240
:103F700022850090D2B2D3E702203DE700200080E6
:103F8000002400802DE9F0431D46002385B00393F3
:103F900090F841300446202B174672D103689B6984
:103FA00013F400436DD190F84020012A69D001221A
:103FB00080F840202422C1F3090646F0007880F8FA
:103FC000412048F420584364E3682268012B12BF63
:103FD000434646F0007343F400535360FDF73AFF45
:103FE0008146226893699269C3F34013C2F30012B9
:103FF000134316D023689A692B4612F01002CDF8AD
:10400000009024D120212046FFF74BFDE8B9202362
:104010002268D36184F8413084F8400005B0BDE8DF
:10402000F0836B1CDDD0FDF715FFA0EB0900A84263
:1040300001D8002DD5D1202384F84130636C43F0A2
:1040400020036364002384F840300120E6E7002267
:1040500020212046FFF725FD0028F6D110222368F5
:10406000DA612022DA61039B01330393039BBB4295
:10407000AAD384F84120636C84F84000134363643E
:10408000E3E70220CAE710B590F841200346202A52
:10409000D4B21CD190F84020012A18D0242280F8F4
:1040A00041200268106820F001001060106820F4C0
:1040B000805010601068014300201160116841F0C9
:1040C0000101116083F8414083F8400010BD0220D7
:1040D000FCE710B590F841200346202AD4B21BD14A
:1040E00090F84020012A17D0242280F8412002684D
:1040F000106820F001001060106820F4706040EA41
:10410000012100201160116841F00101116083F864
:10411000414083F8400010BD0220FCE7034A002024
:10412000136843F001031360704700BF00040340AD
:1041300038B502230B4CE360236823F001032360AE
:10414000FDF788FE0546206810F0010000D138BD5B
:10415000FDF780FE401B0128F5D92368DB07F2D567
:104160000320F4E700040340704738B504460028F4
:1041700042D0FFF7F9FF4CF6CC4223681A6045F2B3
:1041800055521A6062685A60A2689A60FDF762FE32
:1041900005462268D368980712D42369DBB94FF427
:1041A00080435361FDF756FE05462368DA6812071F
:1041B00014D11969E26891421AD01A61002009E00D
:1041C000FDF748FE401B2128E3D92368DB689B07E5
:1041D000DFD5032038BD43F44043E2E7FDF73AFE64
:1041E000401B2128E1D92368DB681907F1D1DCE7FE
:1041F0004AF6AA221A60E1E70120EBE74AF6AA2272
:10420000036800201A6070474E4B30B5DA6902F03F
:104210001802082A00F08F80DA6912F0180F09D10D
:104220001A68494812F0200F03D01B68C3F3C1037A
:10423000D84030BDDA6902F01802102A7DD0DA6960
:1042400002F01802182A7AD1996A9D6A9A6A15F4BE
:104250007C5F9C6BC5F30520EBD0C2F30012C4F366
:10426000CC04624307EE900A06EE902A01F00302A6
:10427000012AB8EEE77AFAEEE96AF7EE005A0FD0B3
:10428000032A4AD05B6B9FED316AC3F3080307EE44
:10429000903AF8EEE77A77EEA67A77EEA57A37E0ED
:1042A0001A68920627D51968274AC1F3C101CA4086
:1042B00007EE902AB8EEE76A5B6BC6EE077AC3F3A7
:1042C000080307EE103AB8EEC77A37EE267A37EED3
:1042D000257A67EE877A1B4B5B6BC3F3462301336A
:1042E00007EE103AF8EEC76A87EEA67AFCEEC77AB8
:1042F00017EE900A9DE75B6B9FED156AC3F3080309
:1043000007EE903AF8EEE77A77EEA67A77EEA57A9E
:10431000C6EE076A67EEA67ADDE75B6B9FED0D6A76
:10432000C3F3080307EE903AF8EEE77A77EEA67A41
:1043300077EEA57AECE708487BE7084879E702487A
:1043400077E700BF000C02440090D0030024744AB9
:104350000024744C001B374B00093D00001BB700C4
:104360002DE9F0410D46044610B90120BDE8F08169
:10437000864A136803F00F038B426FD32368DE066F
:1043800078D418070DD5824920690A6A120902F00B
:104390007002904281BF0A6A22F4E06242EA00128F
:1043A0000A6259070BD57A49E0680A6A02F070027E
:1043B000904281BF0A6A22F0700202430A629A07A1
:1043C0000BD57349A0680A6A02F00F02904281BFC0
:1043D0000A6A22F00F0202430A62DF0759D42268F8
:1043E000960700F1AC8069490B6803F00F03AB42FC
:1043F00000F2B280500700F1BB8011070DD564496F
:1044000020690B6A1B0903F0700398423FBF0B6AD7
:1044100023F4E06343EA00130B62D3060DD55C4A34
:104420006169136A1B0A03F0700399423FBF136A64
:1044300023F4E04343EA01231362FFF7E5FEBDE8FE
:10444000F041534B534A1B6A03F00F03D35CD8402F
:10445000514B1860514B1868FDF784BC136823F06A
:104460000F030B431360136803F00F038B427FF4B9
:104470007CAF83E7464960690A6A120A02F070025B
:10448000904281BF0A6A22F4E04242EA00220A62B4
:1044900077E761683E4B03291A681DD112F0007F4F
:1044A0003FF463AFDA6941F2883822F003020A432D
:1044B000DA61FDF7CFFC63680646032B344F18D151
:1044C000FB6903F01803182B89D0FDF7C3FC801B90
:1044D0004045F5D9032049E7022902D112F4003FF3
:1044E000DEE7012902D112F4007FD9E712F0020FB2
:1044F000D6E7022B0BD1FB6903F01803102B3FF416
:104500006EAFFDF7A7FC801B4045F4D9E2E7012B15
:1045100010D1FB6903F01803082B3FF460AFFDF7DF
:1045200099FC801B4045F4D9D4E7FDF793FC801B30
:104530004045CFD8FB6913F0180FF6D14FE7144967
:10454000A0680B6A03F00F0398423FBF0B6A23F089
:104550000F0303430B6246E70B6823F00F032B4363
:104560000B600B6803F00F03AB427FF4FEAE41E734
:104570000749E0680B6A03F0700398423FBF0B6A7B
:1045800023F0700303430B6237E700BF00200240B3
:10459000000C024408B802080000002008000020B7
:1045A00008B5FFF731FE064B064A1B6A03F00F03FE
:1045B000D35C03F01F03D840034B186008BD00BF55
:1045C000000C024408B80208000000202DE9F04168
:1045D000044600286AD0994BDE699F6A036806F09A
:1045E0001806DA0607F0030710D5082EC36903D0B2
:1045F000182E24D1022F22D1002B57D08F4A216AA6
:10460000936923F47C1343EA014393612368D90738
:1046100043D423689A0700F19E8023681D0700F1A8
:10462000F6802368580700F1218123689B0600F17A
:104630009A81A16A002940F0BB8100201AE07F4DD9
:10464000D3B12B6843F480732B60FDF703FC8046E5
:104650002B689B0507D5AB69226A23F47C1343EAD8
:104660000243AB61D2E7FDF7F5FBA0EB080002289F
:10467000EED90320BDE8F0812B6823F480732B6012
:10468000FDF7E8FB80462B689805BFD5FDF7E2FBF8
:10469000A0EB08000228F6D9EBE7102E636803D0E0
:1046A000182E05D1032F03D1002BB2D10120E1E751
:1046B000B3F5803F614D12D12B6843F480332B60FA
:1046C000FDF7C8FB0546DFF87481D8F800309B037E
:1046D0009FD4FDF7BFFB401B6428F6D9C9E7C3B9D7
:1046E0002B6823F480332B602B6823F480132B601A
:1046F0002B6823F480232B60FDF7ACFB80462B68EE
:10470000980386D5FDF7A6FBA0EB08006428F6D930
:10471000AFE7B3F5A02F08D12B6843F480232B60BB
:104720002B6823F480132B60C6E7B3F5A81F2B6812
:1047300006D143F480232B602B6843F48013F2E707
:1047400023F480332B602B6823F480232B602B68A9
:1047500023F48013B3E7E3681EB1182E2ED1012F86
:104760002CD1002BA2D076B1FDF774FB0746334D58
:104770002B6899071CD52B69626923F4FE0343EA71
:1047800002432B6149E72D4A2169136803F018039E
:104790008B42E9D0136823F018030B431360FFF733
:1047A000FFFE274B1868FDF7DDFA0028DCD07DE717
:1047B000FDF750FBC01B0228DAD95AE71F4DABB1F9
:1047C0002B68226923F0180313432B602B6843F0F6
:1047D00001032B60FDF73EFB07462B689A07CAD4FE
:1047E000FDF738FBC01B0228F7D942E72B6823F0FE
:1047F00001032B60FDF72EFB07462B689B077FF517
:104800000CAFFDF727FBC01B0228F6D931E7A369DF
:104810000A4DBBB1D5F8F03043F08063C5F8F030F5
:10482000FDF718FB0746D5F8F03019013FF5F9AE52
:10483000FDF710FBC01B0228F5D91AE7000C024453
:1048400008000020D5F8F03023F08063C5F8F03080
:10485000FDF700FB0746D5F8F0301A017FF5E1AE11
:10486000FDF7F8FAC01B0228F5D902E7AF4D6B6AD5
:10487000DF071AD5A368AE4D012B26D1D5F8F0304D
:1048800043F00103C5F8F030FDF7E4FA41F288384F
:104890000546A74FD7F8F03099073FF5C6AEFDF7AC
:1048A000D9FA401B4045F5D9E3E66B6A43F00103B2
:1048B0006B62FDF7CFFA07466B6AD807DAD4FDF7CB
:1048C000C9FAC01B0228F7D9D3E60BBBD5F8F030E4
:1048D00041F2883823F00103C5F8F030D5F8F03004
:1048E00023F08003C5F8F030D5F8F03023F004034E
:1048F000C5F8F030FDF7AEFA0746D5F8F0309A0764
:104900007FF593AEFDF7A6FAC01B4045F5D9B0E69A
:10491000052B0CD1D5F8F03043F00403C5F8F03086
:10492000D5F8F03023F08003C5F8F030A6E7852BEA
:10493000D5F8F03008D143F00403C5F8F030D5F8CD
:10494000F03043F08003EFE723F00103C5F8F030C7
:10495000D5F8F03023F00403C5F8F030D5F8F03086
:1049600023F080038EE7636A714D83B12B6843F4B3
:1049700080532B60FDF76EFA07462B689B043FF5CA
:1049800058AEFDF767FAC01B0228F6D971E62B680E
:1049900023F480532B60FDF75DFA07462B689804DB
:1049A0007FF547AEFDF756FAC01B0228F6D960E640
:1049B000182E5F4D72D02B68022923F080732B6074
:1049C00059D1FDF747FA06462B6899014DD4AB6AD9
:1049D000E26A23F47C5323F003031343226B43EA7C
:1049E0000223AB62A36BE26B013B013A5B02120450
:1049F00002F4FE029BB21343626B013AC2F3080257
:104A00001343226C013A120602F0FE4213436B6319
:104A1000AB6A23F01003AB62E36CDB00AB63AB6A01
:104A200043F01003AB62AB6A626C23F00C031343D8
:104A3000AB62AB6AA26C23F020031343AB62AB6A98
:104A400043F48033AB622B6843F080732B60FDF737
:104A500001FA0446364D2B689A013FF5EEADFDF79D
:104A6000F9F9001B0228F6D903E6FDF7F3F9801BDC
:104A70000228A9D9FDE5FDF7EDF904462B689B0155
:104A800006D4AB6A23F4E02323F00303AB62D4E53E
:104A9000FDF7E0F9001B0228F0D9EAE50129AA6A2E
:104AA0006B6B3FF403AEE06A02F0030181427FF4D6
:104AB000FDAD216BC2F305228A427FF4F7AD626B34
:104AC000C3F30801013A91427FF4F0ADA26BC3F346
:104AD0004621013A91427FF4E9ADE26BC3F306410E
:104AE000013A91427FF4E2AD226CC3F30663013ACE
:104AF00093427FF4DBADAB6BE26CC3F3CC03934228
:104B00003FF49BAD0A4DAB6A23F01003AB62FDF797
:104B1000A1F90646FDF79EF9B042FBD0E36CDB003D
:104B2000AB63AB6A43F01003B0E700BF0008024478
:104B3000000C024408B5FFF733FD054B054A1B6A1C
:104B4000C3F30213D35C03F01F03D84008BD00BFBA
:104B5000000C024400B8020808B5FFF721FD054B20
:104B6000054A1B6AC3F30223D35C03F01F03D8403A
:104B700008BD00BF000C024400B8020808B5FFF7EA
:104B80000FFD054B054A1B6AC3F30233D35C03F0E8
:104B90001F03D84008BD00BF000C024400B8020843
:104BA000024A136843F4002313607047000C024468
:104BB00008B5054B5A6D520504D54FF480629A65CD
:104BC00005F02BFE08BD00BF000C024470B5344C4C
:104BD0000546236823F080632360FDF73BF9064612
:104BE00023681A014ED4E36A2A6823F47C5323F025
:104BF000030313436A6843EA0223E362EB682A690A
:104C0000013B013A5B02120402F4FE029BB2134321
:104C1000AA68013AC2F3080213436A69013A12060C
:104C200002F0FE421343E363E36AAA6923F00C0334
:104C30001343E362E36AEA6923F020031343E36268
:104C4000E36A6A6A1343E362E36A23F01003E362F0
:104C5000236C2A6A23F47F4323F0F80343EAC20358
:104C60002364E36A0E4D43F01003E362236843F0CC
:104C700080632360FDF7EEF804462B681B0108D51E
:104C8000002005E0FDF7E6F8801B0228A8D90320E4
:104C900070BDFDF7DFF8001B0228EED9F7E700BF73
:104CA000000C024470B5344C0546236823F0805351
:104CB0002360FDF7CFF8064623689A004ED4236B95
:104CC0002A6823F47C5323F0030313436A6843EAFE
:104CD00002232363EB682A69013B013A5B02120459
:104CE00002F4FE029BB21343AA68013AC2F308021F
:104CF00013436A69013A120602F0FE4213436364E9
:104D0000236BAA6923F00C0313432363236BEA6923
:104D100023F0200313432363236B6A6A1343236343
:104D2000236B23F010032363A36C2A6A23F47F43CD
:104D300023F0F80343EAC203A364236B0E4D43F050
:104D400010032363236843F080532360FDF782F848
:104D500004462B689B0008D5002005E0FDF77AF893
:104D6000801B0228A8D9032070BDFDF773F8001B33
:104D70000228EED9F7E700BF000C024402682DE9D3
:104D8000F843D401054608D5A049806DD1F8E83034
:104D900023F040430343C1F8E830D00716D5EB6D4C
:104DA000052B27D8DFE803F009032109090905F1DC
:104DB0000800FFF70BFF064648B9944AE96DD2F8A0
:104DC000D83023F007030B43C2F8D83000262B68F5
:104DD000990708D52B6E102B00F0CF800CD88BB123
:104DE000082B11D0012634461FE005F13000FFF7F3
:104DF00059FFE0E70126EAE723F00802202A01D064
:104E0000182BEFD1344604E005F10800FFF7DEFE71
:104E10000446002C40F0B6807C4A296ED2F8D83087
:104E200023F038030B43C2F8D8302B685A070DD54E
:104E30006B6E802B00F0C18000F2A680002B00F08A
:104E4000AB80402B00F0B380012634462B681B0753
:104E50000FD5AB6EB3F5806F00F0D08000F2B48058
:104E6000002B00F0BA80B3F5007F00F0C18001266E
:104E700034462B68DF060FD5EB6EB3F5005F00F00C
:104E8000E18000F2C580002B00F0CB80B3F5805F9D
:104E900000F0D280012634462B6898060FD52B6F80
:104EA000B3F5803F00F0EF8000F2D380002B00F0DC
:104EB000D980B3F5004F00F0E080012634462B681E
:104EC00059060FD56B6FB3F5002F00F0FD8000F28F
:104ED000E180002B00F0E780B3F5802F00F0EE803A
:104EE000012634462B681A060FD5AB6FB3F5800F39
:104EF00000F00B8100F2EF80002B00F0F580B3F59D
:104F0000001F00F0FC80012634462B68DB050FD51E
:104F1000EB6FB3F1007F00F0198100F2FD80002BF0
:104F200000F00381B3F1807F00F00A81012634464E
:104F30002B689F0510D5D5F88030B3F1805F00F065
:104F4000278100F20A81002B00F01081B3F1006F7D
:104F500000F01881012634462B68580540F1348151
:104F6000D5F88430052B00F24482DFE813F02001ED
:104F70001B013D0220012001200105F13000FFF757
:104F800091FE45E7264650E723F04002B2F5807FC8
:104F900002D0C02B7FF458AFA4B91C4A696ED2F876
:104FA000D83023F4E0730B43C2F8D8304EE705F154
:104FB0000800FFF70BFE0446EEE705F13000FFF7AF
:104FC00071FEF8E7264641E723F40072B2F5006F60
:104FD00003D0B3F5C06F7FF44AAFA4B90B4AA96EF2
:104FE000D2F8D83023F460630B43C2F8D83040E7DE
:104FF00005F10800FFF7EAFD0446EEE705F1300091
:10500000FFF750FEF8E7264633E700BF000C0244E6
:1050100023F48052B2F5804F03D0B3F5405F7FF4A4
:1050200039AFA4B95E4AE96ED2F8D83023F4E04330
:105030000B43C2F8D8302FE705F10800FFF7C6FD93
:105040000446EEE705F13000FFF72CFEF8E72646B0
:1050500022E723F40042B2F5003F03D0B3F5C03F8E
:105060007FF42BAFA4B94E4A296FD2F8D83023F47D
:1050700060330B43C2F8D83021E705F10800FFF791
:10508000A5FD0446EEE705F13000FFF70BFEF8E75B
:10509000264614E723F48022B2F5801F03D0B3F52F
:1050A000402F7FF41DAFA4B93D4A696FD2F8D830C4
:1050B00023F4E0130B43C2F8D83013E705F10800DE
:1050C000FFF784FD0446EEE705F13000FFF7EAFD47
:1050D000F8E7264606E723F40012B2F5000F03D0E6
:1050E000B3F5C00F7FF40FAFA4B92D4AA96FD2F862
:1050F000D83023F460030B43C2F8D83005E705F13C
:105100000800FFF763FD0446EEE705F13000FFF706
:10511000C9FDF8E72646F8E623F08072B2F1806F09
:1051200003D0B3F1407F7FF401AFA4B91C4AE96F0B
:10513000D2F8D83023F0E0630B43C2F8D830F7E65A
:1051400005F10800FFF742FD0446EEE705F13000E7
:10515000FFF7A8FDF8E72646EAE623F00062B2F181
:10516000005F03D0B3F1C05F7FF4F4AEACB90C4A7A
:10517000D5F88010D2F8D83023F060530B43C2F832
:10518000D830E9E605F10800FFF720FD0446EDE719
:1051900005F13000FFF786FDF8E72646DCE600BFA4
:1051A000000C024405F10800FFF710FD0446002C36
:1051B00040F02281B24AD5F88410D2F8DC3023F0D6
:1051C00007030B43C2F8DC302B6819050ED5D5F860
:1051D0008830202B00F02B8100F21081002B00F092
:1051E0001481102B00F01D81012634462B68DA044F
:1051F00010D5D5F88C30B3F1007F00F03A8100F281
:105200001D81002B00F02381B3F1807F00F02B8102
:10521000012634462B689B040CD5D5F89030B3F5A5
:10522000803F00F0418100F22D81002B00F03081A1
:10523000012634462B685F040CD5D5F89430B3F5BD
:10524000802F00F04B8100F23781002B00F03A8173
:10525000012634462B6818040CD5D5F89830B3F5E0
:10526000801F00F0558100F24181002B00F0448145
:10527000012634466B6859050CD5D5F89C30B3F53A
:10528000800F00F05F8100F24B81002B00F04E8117
:10529000012634462B68DA030BD5D5F8A030B3F1DC
:1052A000807F00F0578133F0007300F058810126B1
:1052B0003446D5E900131B0509D5714BDA6922F490
:1052C0000042DA61DA69D5F800010243DA618F033E
:1052D00010D5D5F8A430B3F5007F00F0698100F255
:1052E0004C81002B00F05281B3F5807F00F05A8191
:1052F000012634462B68580310D5D5F8A830B3F5ED
:10530000005F00F0778100F25A81002B00F060818D
:10531000B3F5805F00F06881012634466B6899061A
:1053200010D5D5F8AC30B3F5003F00F0858100F220
:105330006881002B00F06E81B3F5803F00F076812C
:10534000012634466B685A0610D5D5F8B030B3F54F
:10535000001F00F0938100F27681002B00F07C8129
:10536000B3F5801F00F08481012634466B681B066C
:1053700010D5D5F8B430B3F1007F00F0A18100F270
:105380008481002B00F08A81B3F1807F00F092814C
:10539000012634466B68DF0510D5D5F8B830B3F177
:1053A000005F00F0AF8100F29281002B00F0988145
:1053B000B3F1805F00F0A081012634462B6818030A
:1053C00040F1B981D5F8C030B3F5003F00F0D3818A
:1053D00000F29F81002B00F0C281B3F5803F00F006
:1053E000C48101263446A6E105F13000FFF75AFCDE
:1053F000DCE601263446E7E62646E5E623F0100221
:10540000402A02D0302B7FF4EFAEACB91C4AD5F85D
:105410008810D2F8DC3023F070030B43C2F8DC3084
:10542000E4E605F10800FFF7D1FB0446EDE705F1DE
:105430003000FFF737FCF8E72646D7E623F0807206
:10544000B2F1806F03D0B3F1407F7FF4E1AEACB92D
:105450000B4AD5F88C10D2F8E03023F0E0630B4310
:10546000C2F8E030D6E605F10800FFF7AFFB0446CE
:10547000EDE705F13000FFF715FCF8E72646C9E631
:10548000000C024423F48033B3F5003F7FF4D0AE28
:1054900084B9BC4AD5F89010D2F8E43023F44033F4
:1054A0000B43C2F8E430C5E605F13000FFF7FAFB24
:1054B0000446EDE72646BDE623F48023B3F5002F2E
:1054C0007FF4C6AE84B9AF4AD5F89410D2F8E43070
:1054D00023F440230B43C2F8E430BBE605F130006F
:1054E000FFF7E0FB0446EDE72646B3E623F480131E
:1054F000B3F5001F7FF4BCAE84B9A24AD5F898106A
:10550000D2F8E43023F440130B43C2F8E430B1E6A0
:1055100005F13000FFF7C6FB0446EDE72646A9E695
:1055200023F48003B3F5000F7FF4B2AE84B9954A3B
:10553000D5F89C10D2F8E43023F440030B43C2F8B2
:10554000E430A7E605F13000FFF7ACFB0446EDE7D9
:1055500026469FE605F13000FFF7A4FB044654B948
:10556000884AD5F8A010D2F8E43023F040730B43FA
:10557000C2F8E4309DE626469BE623F48072B2F53D
:10558000806F03D0B3F5407F7FF4B2AEACB97D4AF3
:10559000D5F8A410D2F8DC3023F4E0630B43C2F852
:1055A000DC30A7E605F10800FFF710FB0446EDE745
:1055B00005F13000FFF776FBF8E726469AE623F47C
:1055C0008052B2F5804F03D0B3F5405F7FF4A4AEB4
:1055D000ACB96C4AD5F8A810D2F8DC3023F4E0431B
:1055E0000B43C2F8DC3099E605F10800FFF7EEFA4C
:1055F0000446EDE705F13000FFF754FBF8E72646D7
:105600008CE623F48032B2F5802F03D0B3F5403F0F
:105610007FF496AEACB95B4AD5F8AC10D2F8DC306A
:1056200023F4E0230B43C2F8DC308BE605F10800DD
:10563000FFF7CCFA0446EDE705F13000FFF732FB47
:10564000F8E726467EE623F48012B2F5800F03D0F9
:10565000B3F5401F7FF488AEACB94A4AD5F8B01014
:10566000D2F8DC3023F4E0030B43C2F8DC307DE6F3
:1056700005F10800FFF7AAFA0446EDE705F130004E
:10568000FFF710FBF8E7264670E623F08072B2F1D0
:10569000806F03D0B3F1407F7FF47AAEACB9394A62
:1056A000D5F8B410D2F8DC3023F0E0630B43C2F835
:1056B000DC306FE605F10800FFF788FA0446EDE7F5
:1056C00005F13000FFF7EEFAF8E7264662E623F030
:1056D0008052B2F1804F03D0B3F1405F7FF46CAEE3
:1056E000ACB9284AD5F8B810D2F8DC3023F0E04342
:1056F0000B43C2F8DC3061E605F10800FFF766FAFB
:105700000446EDE705F13000FFF7CCFAF8E726464E
:1057100054E6B3F5403F03D0B3F5802F7FF461AE7C
:1057200074BB184AD5F8C010D2F8E83023F4E0234F
:105730000B43C2F8E8302B68D90238D5D5F8C4300D
:10574000B3F5801F00F0CC801ED8002B00F0BC8089
:10575000B3F5002F00F0BE800126344627E0094A49
:10576000936A43F400339362DAE705F10800FFF728
:105770002DFA0446D4E705F13000FFF793FAF8E775
:105780002646D8E7000C0244B3F5C01F02D0B3F59B
:10579000001FE1D1002C40F0A880A84AD5F8C41021
:1057A000D2F8E83023F460130B43C2F8E8302B68DA
:1057B0009A0216D5D5F8D030022B00F0988003D984
:1057C000033B022B00F29980002C40F099809B4A09
:1057D000D5F8D010D2F8E83023F007030B43C2F815
:1057E000E830D5E900039B0510D5D5F8D41031F089
:1057F000080340F08780002C40F087808F4AD2F861
:10580000E83023F008030B43C2F8E830870134D5B1
:105810008B4F7B6A43F001037B62FCF71BFB8046E6
:105820007B6AD80773D5002C40F0A780834BD5F84E
:10583000F420D3F8F01011F4407171D1D5F8F430A0
:105840007E4903F44072B2F5407F40F09280C8690F
:105850007C4A20F47C5002EA13120243CA61774A60
:10586000C3F30B03D2F8F01021F44071C2F8F0102A
:10587000D2F8F0100B43C2F8F03029684B0109D57B
:10588000D5F8C820102A00F0888078D8002A7AD06D
:10589000012634464F0209D5D5F8CC30002B00F054
:1058A0008480402B00F09280012634462B6818013A
:1058B00040F1A480D5F8DC30042B00F2B980DFE899
:1058C00003F08DACB29292005C4A936A43F40033C9
:1058D00093625FE705F10800FFF778F9044659E79E
:1058E00005F13000FFF7DEF9F8E726465FE705F13E
:1058F0000800FFF76BF9044666E70126344670E7B7
:1059000026466EE70126344680E726467EE7FCF70A
:10591000A1FAA0EB0800022882D903263446ACE79E
:10592000914211D0D3F8F020D3F8F01022F4407255
:1059300041F48031C3F8F010D3F8F01021F4803135
:10594000C3F8F010C3F8F020D1077FF577AFFCF76C
:1059500081FA41F288390746DFF8E080D8F8F03064
:105960009A073FF56BAFFCF775FAC01B4845F5D9B0
:10597000D3E7CA6922F47C5270E726467DE722F01D
:105980001003202B84D174B92C48D0F8E83023F0D0
:1059900030031343C0F8E8307CE72848836A43F4B7
:1059A00000338362EFE7264674E7244A936A43F4A0
:1059B0000033936284B9214AD5F8CC10D2F8E43090
:1059C00023F040030B43C2F8E4306FE705F1080011
:1059D000FFF7FCF80446EDE7264667E7174A936AA7
:1059E00043F40033936234BB144AD5F8DC10D2F888
:1059F000E03023F007030B43C2F8E0302B68D900F6
:105A000031D5D5F8E030102B48D01DD8002B39D037
:105A1000082B3DD00126344625E005F10800FFF7AC
:105A2000D5F80446DFE705F13000FFF73BF9F8E76A
:105A300001263446E2E72646E0E700BF000C0244B8
:105A400000080244CFFFFF00182B01D0202BE1D12A
:105A50004CBBA84AD5F8E010D2F8E03023F0380368
:105A60000B43C2F8E0302B689A002FD5D5F8E4300C
:105A7000802B75D019D8002B66D0402B6AD0012618
:105A8000344623E09B4A936A43F400339362DFE792
:105A900005F10800FFF79AF80446D9E705F1300050
:105AA000FFF700F9F8E72646DDE7C02B02D0B3F593
:105AB000807FE4D1002C58D18E4AD5F8E410D2F87A
:105AC000E03023F4E0730B43C2F8E0302B685B0056
:105AD0000CD5D5F8E830B3F5806F62D047D8002BED
